{
  "abi": [
    {
      "inputs": [],
      "name": "WithdrawTransfer",
      "type": "error"
    },
    {
      "anonymous": false,
      "inputs": [
        {
          "indexed": false,
          "internalType": "address",
          "name": "",
          "type": "address"
        },
        {
          "indexed": false,
          "internalType": "uint256",
          "name": "",
          "type": "uint256"
        }
      ],
      "name": "Donated",
      "type": "event"
    },
    {
      "anonymous": false,
      "inputs": [
        {
          "indexed": true,
          "internalType": "address",
          "name": "previousOwner",
          "type": "address"
        },
        {
          "indexed": true,
          "internalType": "address",
          "name": "newOwner",
          "type": "address"
        }
      ],
      "name": "OwnershipTransferred",
      "type": "event"
    },
    {
      "anonymous": false,
      "inputs": [
        {
          "indexed": false,
          "internalType": "address",
          "name": "",
          "type": "address"
        },
        {
          "indexed": false,
          "internalType": "uint256",
          "name": "",
          "type": "uint256"
        }
      ],
      "name": "Redeemed",
      "type": "event"
    },
    {
      "inputs": [
        {
          "internalType": "address",
          "name": "_addressFor",
          "type": "address"
        }
      ],
      "name": "donate",
      "outputs": [],
      "stateMutability": "payable",
      "type": "function"
    },
    {
      "inputs": [],
      "name": "donate",
      "outputs": [],
      "stateMutability": "payable",
      "type": "function"
    },
    {
      "inputs": [],
      "name": "owner",
      "outputs": [
        {
          "internalType": "address",
          "name": "",
          "type": "address"
        }
      ],
      "stateMutability": "view",
      "type": "function"
    },
    {
      "inputs": [
        {
          "internalType": "uint256",
          "name": "value",
          "type": "uint256"
        }
      ],
      "name": "redeem",
      "outputs": [],
      "stateMutability": "nonpayable",
      "type": "function"
    },
    {
      "inputs": [],
      "name": "renounceOwnership",
      "outputs": [],
      "stateMutability": "nonpayable",
      "type": "function"
    },
    {
      "inputs": [
        {
          "internalType": "address",
          "name": "newOwner",
          "type": "address"
        }
      ],
      "name": "transferOwnership",
      "outputs": [],
      "stateMutability": "nonpayable",
      "type": "function"
    },
    {
      "inputs": [
        {
          "internalType": "address",
          "name": "",
          "type": "address"
        }
      ],
      "name": "users",
      "outputs": [
        {
          "internalType": "uint256",
          "name": "donatedAmount",
          "type": "uint256"
        },
        {
          "internalType": "uint256",
          "name": "redeemedAmount",
          "type": "uint256"
        }
      ],
      "stateMutability": "view",
      "type": "function"
    },
    {
      "inputs": [
        {
          "internalType": "address payable",
          "name": "payee",
          "type": "address"
        }
      ],
      "name": "withdrawPayments",
      "outputs": [],
      "stateMutability": "nonpayable",
      "type": "function"
    }
  ],
  "bytecode": {
    "object": "0x608060405234801561001057600080fd5b5061001a3361001f565b61006f565b600080546001600160a01b038381166001600160a01b0319831681178455604051919092169283917f8be0079c531659141344cd1fd0a4f28419497f9722a3daafe3b4186f6b6457e09190a35050565b6105868061007e6000396000f3fe60806040526004361061007a5760003560e01c8063a87430ba1161004e578063a87430ba146100f6578063db006a751461013f578063ed88c68e1461015f578063f2fde38b1461016757600080fd5b8062362a951461007f57806331b3eb9414610094578063715018a6146100b45780638da5cb5b146100c9575b600080fd5b61009261008d3660046104ed565b610187565b005b3480156100a057600080fd5b506100926100af3660046104ed565b6101f5565b3480156100c057600080fd5b50610092610276565b3480156100d557600080fd5b506000546040516001600160a01b0390911681526020015b60405180910390f35b34801561010257600080fd5b5061012a6101113660046104ed565b6001602081905260009182526040909120805491015482565b604080519283526020830191909152016100ed565b34801561014b57600080fd5b5061009261015a366004610511565b61028a565b610092610352565b34801561017357600080fd5b506100926101823660046104ed565b6103b5565b6001600160a01b03811660009081526001602052604081208054909134918391906101b390849061052a565b9091555050604080513381523460208201527f2a01595cddf097c90216094025db714da3f4e5bd8877b56ba86a24ecead8e54391015b60405180910390a15050565b6101fd61042e565b60405147906000906001600160a01b0384169083908381818185875af1925050503d806000811461024a576040519150601f19603f3d011682016040523d82523d6000602084013e61024f565b606091505b50509050806102715760405163d23a9e8960e01b815260040160405180910390fd5b505050565b61027e61042e565b6102886000610488565b565b3260009081526001602081905260409091208054918101549091906102b090849061052a565b11156103035760405162461bcd60e51b815260206004820152601f60248201527f43616e6e6f742072656465656d206d6f7265207468616e20646f6e617465640060448201526064015b60405180910390fd5b81816001016000828254610317919061052a565b909155505060408051338152602081018490527f4896181ff8f4543cc00db9fe9b6fb7e6f032b7eb772c72ab1ec1b4d2e03b936991016101e9565b33600090815260016020526040812080549091349183919061037590849061052a565b9091555050604080513381523460208201527f2a01595cddf097c90216094025db714da3f4e5bd8877b56ba86a24ecead8e543910160405180910390a150565b6103bd61042e565b6001600160a01b0381166104225760405162461bcd60e51b815260206004820152602660248201527f4f776e61626c653a206e6577206f776e657220697320746865207a65726f206160448201526564647265737360d01b60648201526084016102fa565b61042b81610488565b50565b6000546001600160a01b031633146102885760405162461bcd60e51b815260206004820181905260248201527f4f776e61626c653a2063616c6c6572206973206e6f7420746865206f776e657260448201526064016102fa565b600080546001600160a01b038381166001600160a01b0319831681178455604051919092169283917f8be0079c531659141344cd1fd0a4f28419497f9722a3daafe3b4186f6b6457e09190a35050565b6001600160a01b038116811461042b57600080fd5b6000602082840312156104ff57600080fd5b813561050a816104d8565b9392505050565b60006020828403121561052357600080fd5b5035919050565b6000821982111561054b57634e487b7160e01b600052601160045260246000fd5b50019056fea264697066735822122011f3ad7686f9afced0ca36bca7c2c6272ff8cdf54b3a0109aaf5cf3c2765596264736f6c634300080f0033",
    "linkReferences": {}
  },
  "methodIdentifiers": {
    "donate()": "ed88c68e",
    "donate(address)": "00362a95",
    "owner()": "8da5cb5b",
    "redeem(uint256)": "db006a75",
    "renounceOwnership()": "715018a6",
    "transferOwnership(address)": "f2fde38b",
    "users(address)": "a87430ba",
    "withdrawPayments(address)": "31b3eb94"
  },
  "id": 14
}