{
  "abi": [
    {
      "inputs": [],
      "name": "WithdrawTransfer",
      "type": "error"
    },
    {
      "anonymous": false,
      "inputs": [
        {
          "indexed": false,
          "internalType": "address",
          "name": "",
          "type": "address"
        },
        {
          "indexed": false,
          "internalType": "uint256",
          "name": "",
          "type": "uint256"
        }
      ],
      "name": "Donated",
      "type": "event"
    },
    {
      "anonymous": false,
      "inputs": [
        {
          "indexed": true,
          "internalType": "address",
          "name": "previousOwner",
          "type": "address"
        },
        {
          "indexed": true,
          "internalType": "address",
          "name": "newOwner",
          "type": "address"
        }
      ],
      "name": "OwnershipTransferred",
      "type": "event"
    },
    {
      "anonymous": false,
      "inputs": [
        {
          "indexed": false,
          "internalType": "address",
          "name": "",
          "type": "address"
        },
        {
          "indexed": false,
          "internalType": "uint256",
          "name": "",
          "type": "uint256"
        }
      ],
      "name": "Redeemed",
      "type": "event"
    },
    {
      "inputs": [],
      "name": "donate",
      "outputs": [],
      "stateMutability": "payable",
      "type": "function"
    },
    {
      "inputs": [],
      "name": "owner",
      "outputs": [
        {
          "internalType": "address",
          "name": "",
          "type": "address"
        }
      ],
      "stateMutability": "view",
      "type": "function"
    },
    {
      "inputs": [
        {
          "internalType": "uint256",
          "name": "value",
          "type": "uint256"
        }
      ],
      "name": "redeem",
      "outputs": [],
      "stateMutability": "nonpayable",
      "type": "function"
    },
    {
      "inputs": [],
      "name": "renounceOwnership",
      "outputs": [],
      "stateMutability": "nonpayable",
      "type": "function"
    },
    {
      "inputs": [
        {
          "internalType": "address",
          "name": "newOwner",
          "type": "address"
        }
      ],
      "name": "transferOwnership",
      "outputs": [],
      "stateMutability": "nonpayable",
      "type": "function"
    },
    {
      "inputs": [
        {
          "internalType": "address",
          "name": "",
          "type": "address"
        }
      ],
      "name": "users",
      "outputs": [
        {
          "internalType": "uint256",
          "name": "donatedAmount",
          "type": "uint256"
        },
        {
          "internalType": "uint256",
          "name": "redeemedAmount",
          "type": "uint256"
        }
      ],
      "stateMutability": "view",
      "type": "function"
    },
    {
      "inputs": [
        {
          "internalType": "address payable",
          "name": "payee",
          "type": "address"
        }
      ],
      "name": "withdrawPayments",
      "outputs": [],
      "stateMutability": "nonpayable",
      "type": "function"
    }
  ],
  "bytecode": {
    "object": "0x608060405234801561001057600080fd5b5061001a3361001f565b61006f565b600080546001600160a01b038381166001600160a01b0319831681178455604051919092169283917f8be0079c531659141344cd1fd0a4f28419497f9722a3daafe3b4186f6b6457e09190a35050565b6105028061007e6000396000f3fe6080604052600436106100705760003560e01c8063a87430ba1161004e578063a87430ba146100d9578063db006a7514610122578063ed88c68e14610142578063f2fde38b1461014a57600080fd5b806331b3eb9414610075578063715018a6146100975780638da5cb5b146100ac575b600080fd5b34801561008157600080fd5b50610095610090366004610469565b61016a565b005b3480156100a357600080fd5b506100956101eb565b3480156100b857600080fd5b506000546040516001600160a01b0390911681526020015b60405180910390f35b3480156100e557600080fd5b5061010d6100f4366004610469565b6001602081905260009182526040909120805491015482565b604080519283526020830191909152016100d0565b34801561012e57600080fd5b5061009561013d36600461048d565b6101ff565b6100956102ce565b34801561015657600080fd5b50610095610165366004610469565b610331565b6101726103aa565b60405147906000906001600160a01b0384169083908381818185875af1925050503d80600081146101bf576040519150601f19603f3d011682016040523d82523d6000602084013e6101c4565b606091505b50509050806101e65760405163d23a9e8960e01b815260040160405180910390fd5b505050565b6101f36103aa565b6101fd6000610404565b565b3260009081526001602081905260409091208054918101549091906102259084906104a6565b11156102785760405162461bcd60e51b815260206004820152601f60248201527f43616e6e6f742072656465656d206d6f7265207468616e20646f6e617465640060448201526064015b60405180910390fd5b8181600101600082825461028c91906104a6565b909155505060408051338152602081018490527f4896181ff8f4543cc00db9fe9b6fb7e6f032b7eb772c72ab1ec1b4d2e03b9369910160405180910390a15050565b3360009081526001602052604081208054909134918391906102f19084906104a6565b9091555050604080513381523460208201527f2a01595cddf097c90216094025db714da3f4e5bd8877b56ba86a24ecead8e543910160405180910390a150565b6103396103aa565b6001600160a01b03811661039e5760405162461bcd60e51b815260206004820152602660248201527f4f776e61626c653a206e6577206f776e657220697320746865207a65726f206160448201526564647265737360d01b606482015260840161026f565b6103a781610404565b50565b6000546001600160a01b031633146101fd5760405162461bcd60e51b815260206004820181905260248201527f4f776e61626c653a2063616c6c6572206973206e6f7420746865206f776e6572604482015260640161026f565b600080546001600160a01b038381166001600160a01b0319831681178455604051919092169283917f8be0079c531659141344cd1fd0a4f28419497f9722a3daafe3b4186f6b6457e09190a35050565b6001600160a01b03811681146103a757600080fd5b60006020828403121561047b57600080fd5b813561048681610454565b9392505050565b60006020828403121561049f57600080fd5b5035919050565b600082198211156104c757634e487b7160e01b600052601160045260246000fd5b50019056fea26469706673582212208a84caec7ea6d544723ca6b7d0a001546f01ce79a64b3322f723c46fb720ada364736f6c634300080f0033",
    "linkReferences": {}
  },
  "methodIdentifiers": {
    "donate()": "ed88c68e",
    "owner()": "8da5cb5b",
    "redeem(uint256)": "db006a75",
    "renounceOwnership()": "715018a6",
    "transferOwnership(address)": "f2fde38b",
    "users(address)": "a87430ba",
    "withdrawPayments(address)": "31b3eb94"
  },
  "id": 16
}